{
  "_format": "hh-sol-artifact-1",
  "contractName": "GameManagerV1",
  "sourceName": "contracts/GameManagerV1.sol",
  "abi": [
    {
      "inputs": [],
      "stateMutability": "nonpayable",
      "type": "constructor"
    },
    {
      "anonymous": false,
      "inputs": [
        {
          "indexed": false,
          "internalType": "uint256",
          "name": "gameId",
          "type": "uint256"
        },
        {
          "indexed": false,
          "internalType": "string",
          "name": "actionType",
          "type": "string"
        },
        {
          "indexed": false,
          "internalType": "enum GameManagerV1.HASENDED",
          "name": "hasEnded",
          "type": "uint8"
        },
        {
          "indexed": true,
          "internalType": "address",
          "name": "executor",
          "type": "address"
        },
        {
          "indexed": false,
          "internalType": "uint256",
          "name": "created",
          "type": "uint256"
        }
      ],
      "name": "Action",
      "type": "event"
    },
    {
      "inputs": [
        {
          "internalType": "uint256",
          "name": "gameId",
          "type": "uint256"
        }
      ],
      "name": "AddPlayerToGame",
      "outputs": [
        {
          "internalType": "bool",
          "name": "",
          "type": "bool"
        }
      ],
      "stateMutability": "nonpayable",
      "type": "function"
    },
    {
      "inputs": [
        {
          "internalType": "bool",
          "name": "_privacy",
          "type": "bool"
        },
        {
          "internalType": "string",
          "name": "_currency",
          "type": "string"
        },
        {
          "internalType": "uint256",
          "name": "_entryFee",
          "type": "uint256"
        }
      ],
      "name": "CreateGame",
      "outputs": [
        {
          "internalType": "bool",
          "name": "",
          "type": "bool"
        }
      ],
      "stateMutability": "nonpayable",
      "type": "function"
    },
    {
      "inputs": [
        {
          "internalType": "uint256",
          "name": "gameId",
          "type": "uint256"
        }
      ],
      "name": "GameEnded",
      "outputs": [],
      "stateMutability": "nonpayable",
      "type": "function"
    },
    {
      "inputs": [],
      "name": "RewardPlayer",
      "outputs": [],
      "stateMutability": "nonpayable",
      "type": "function"
    },
    {
      "inputs": [],
      "name": "activeGamesCounter",
      "outputs": [
        {
          "internalType": "uint256",
          "name": "",
          "type": "uint256"
        }
      ],
      "stateMutability": "view",
      "type": "function"
    },
    {
      "inputs": [
        {
          "internalType": "uint256",
          "name": "",
          "type": "uint256"
        }
      ],
      "name": "creatorOf",
      "outputs": [
        {
          "internalType": "address",
          "name": "",
          "type": "address"
        }
      ],
      "stateMutability": "view",
      "type": "function"
    },
    {
      "inputs": [
        {
          "internalType": "uint256",
          "name": "gameId",
          "type": "uint256"
        }
      ],
      "name": "getAddedPlayersNumber",
      "outputs": [
        {
          "internalType": "uint256",
          "name": "",
          "type": "uint256"
        }
      ],
      "stateMutability": "nonpayable",
      "type": "function"
    },
    {
      "inputs": [
        {
          "internalType": "uint256",
          "name": "gameId",
          "type": "uint256"
        }
      ],
      "name": "getGame",
      "outputs": [
        {
          "components": [
            {
              "internalType": "uint256",
              "name": "gameId",
              "type": "uint256"
            },
            {
              "internalType": "bool",
              "name": "privacy",
              "type": "bool"
            },
            {
              "internalType": "uint256",
              "name": "entryFee",
              "type": "uint256"
            },
            {
              "internalType": "address payable",
              "name": "owner",
              "type": "address"
            },
            {
              "internalType": "enum GameManagerV1.HASENDED",
              "name": "hasEnded",
              "type": "uint8"
            },
            {
              "internalType": "string",
              "name": "currency",
              "type": "string"
            },
            {
              "internalType": "uint256",
              "name": "created_on",
              "type": "uint256"
            },
            {
              "internalType": "uint256",
              "name": "updated_on",
              "type": "uint256"
            },
            {
              "internalType": "bool",
              "name": "player1",
              "type": "bool"
            },
            {
              "internalType": "bool",
              "name": "player2",
              "type": "bool"
            }
          ],
          "internalType": "struct GameManagerV1.GameStruct",
          "name": "",
          "type": "tuple"
        }
      ],
      "stateMutability": "view",
      "type": "function"
    },
    {
      "inputs": [],
      "name": "getGames",
      "outputs": [
        {
          "components": [
            {
              "internalType": "uint256",
              "name": "gameId",
              "type": "uint256"
            },
            {
              "internalType": "bool",
              "name": "privacy",
              "type": "bool"
            },
            {
              "internalType": "uint256",
              "name": "entryFee",
              "type": "uint256"
            },
            {
              "internalType": "address payable",
              "name": "owner",
              "type": "address"
            },
            {
              "internalType": "enum GameManagerV1.HASENDED",
              "name": "hasEnded",
              "type": "uint8"
            },
            {
              "internalType": "string",
              "name": "currency",
              "type": "string"
            },
            {
              "internalType": "uint256",
              "name": "created_on",
              "type": "uint256"
            },
            {
              "internalType": "uint256",
              "name": "updated_on",
              "type": "uint256"
            },
            {
              "internalType": "bool",
              "name": "player1",
              "type": "bool"
            },
            {
              "internalType": "bool",
              "name": "player2",
              "type": "bool"
            }
          ],
          "internalType": "struct GameManagerV1.GameStruct[]",
          "name": "",
          "type": "tuple[]"
        }
      ],
      "stateMutability": "view",
      "type": "function"
    },
    {
      "inputs": [],
      "name": "inactiveGamesCounter",
      "outputs": [
        {
          "internalType": "uint256",
          "name": "",
          "type": "uint256"
        }
      ],
      "stateMutability": "view",
      "type": "function"
    },
    {
      "inputs": [],
      "name": "owner",
      "outputs": [
        {
          "internalType": "address",
          "name": "",
          "type": "address"
        }
      ],
      "stateMutability": "view",
      "type": "function"
    }
  ],
  "bytecode": "0x608060405260006001556000600255600060035534801561001f57600080fd5b50336000806101000a81548173ffffffffffffffffffffffffffffffffffffffff021916908373ffffffffffffffffffffffffffffffffffffffff160217905550611f008061006f6000396000f3fe608060405234801561001057600080fd5b50600436106100a95760003560e01c80638da5cb5b116100715780638da5cb5b14610166578063a2f77bcc14610184578063b88725fb146101b4578063c04c5947146101e4578063c71b0d7614610202578063ce24807f14610220576100a9565b80631e7feefa146100ae57806349991e86146100cc578063589a1743146100d6578063680faa33146101065780637547da2614610136575b600080fd5b6100b661023c565b6040516100c391906111a7565b60405180910390f35b6100d4610242565b005b6100f060048036038101906100eb9190611202565b610244565b6040516100fd9190611270565b60405180910390f35b610120600480360381019061011b9190611409565b610277565b60405161012d9190611487565b60405180910390f35b610150600480360381019061014b9190611202565b6105a2565b60405161015d9190611487565b60405180910390f35b61016e610775565b60405161017b9190611270565b60405180910390f35b61019e60048036038101906101999190611202565b610799565b6040516101ab91906116b1565b60405180910390f35b6101ce60048036038101906101c99190611202565b6109cf565b6040516101db91906111a7565b60405180910390f35b6101ec610b2f565b6040516101f9919061186f565b60405180910390f35b61020a610d2b565b60405161021791906111a7565b60405180910390f35b61023a60048036038101906102359190611202565b610d31565b005b60025481565b565b60046020528060005260406000206000915054906101000a900473ffffffffffffffffffffffffffffffffffffffff1681565b6000808351116102bc576040517f08c379a00000000000000000000000000000000000000000000000000000000081526004016102b3906118ee565b60405180910390fd5b600082116102ff576040517f08c379a00000000000000000000000000000000000000000000000000000000081526004016102f69061195a565b60405180910390fd5b60036000815480929190610312906119a9565b919050555060003390503360046000600354815260200190815260200160002060006101000a81548173ffffffffffffffffffffffffffffffffffffffff021916908373ffffffffffffffffffffffffffffffffffffffff16021790555060016000815480929190610383906119a9565b91905055506005604051806101400160405280600354815260200187151581526020018581526020018373ffffffffffffffffffffffffffffffffffffffff168152602001600060018111156103dc576103db6114e1565b5b81526020018681526020014281526020014281526020016000151581526020016000151581525090806001815401808255809150506001900390600052602060002090600802016000909190919091506000820151816000015560208201518160010160006101000a81548160ff0219169083151502179055506040820151816002015560608201518160030160006101000a81548173ffffffffffffffffffffffffffffffffffffffff021916908373ffffffffffffffffffffffffffffffffffffffff16021790555060808201518160030160146101000a81548160ff021916908360018111156104d2576104d16114e1565b5b021790555060a08201518160040190816104ec9190611bfd565b5060c0820151816005015560e082015181600601556101008201518160070160006101000a81548160ff0219169083151502179055506101208201518160070160016101000a81548160ff02191690831515021790555050503373ffffffffffffffffffffffffffffffffffffffff167f25860639157bd0ff6cbaf6cc0e9bceccf758ff2192709330761fce1853453b6860035460004260405161059293929190611d2a565b60405180910390a2509392505050565b600080600090505b60058054905081101561076a5782600582815481106105cc576105cb611d74565b5b9060005260206000209060080201600001540361075757600581815481106105f7576105f6611d74565b5b906000526020600020906008020160070160009054906101000a900460ff16801561065157506005818154811061063157610630611d74565b5b906000526020600020906008020160070160019054906101000a900460ff165b15610660576000915050610770565b6005818154811061067457610673611d74565b5b906000526020600020906008020160070160009054906101000a900460ff1680156106cf5750600581815481106106ae576106ad611d74565b5b906000526020600020906008020160070160019054906101000a900460ff16155b15610717576001600582815481106106ea576106e9611d74565b5b906000526020600020906008020160070160016101000a81548160ff021916908315150217905550610756565b60016005828154811061072d5761072c611d74565b5b906000526020600020906008020160070160006101000a81548160ff0219169083151502179055505b5b8080610762906119a9565b9150506105aa565b50600190505b919050565b60008054906101000a900473ffffffffffffffffffffffffffffffffffffffff1681565b6107a16110b0565b6107a96110b0565b60005b6005805490508110156109c55783600582815481106107ce576107cd611d74565b5b906000526020600020906008020160000154036109b257600581815481106107f9576107f8611d74565b5b906000526020600020906008020160405180610140016040529081600082015481526020016001820160009054906101000a900460ff16151515158152602001600282015481526020016003820160009054906101000a900473ffffffffffffffffffffffffffffffffffffffff1673ffffffffffffffffffffffffffffffffffffffff1673ffffffffffffffffffffffffffffffffffffffff1681526020016003820160149054906101000a900460ff1660018111156108bd576108bc6114e1565b5b60018111156108cf576108ce6114e1565b5b81526020016004820180546108e390611a20565b80601f016020809104026020016040519081016040528092919081815260200182805461090f90611a20565b801561095c5780601f106109315761010080835404028352916020019161095c565b820191906000526020600020905b81548152906001019060200180831161093f57829003601f168201915b5050505050815260200160058201548152602001600682015481526020016007820160009054906101000a900460ff161515151581526020016007820160019054906101000a900460ff16151515158152505091505b80806109bd906119a9565b9150506107ac565b5080915050919050565b600080600090505b600580549050811015610b285782600582815481106109f9576109f8611d74565b5b90600052602060002090600802016000015403610b155760058181548110610a2457610a23611d74565b5b906000526020600020906008020160070160009054906101000a900460ff168015610a7e575060058181548110610a5e57610a5d611d74565b5b906000526020600020906008020160070160019054906101000a900460ff165b15610a8d576002915050610b2a565b60058181548110610aa157610aa0611d74565b5b906000526020600020906008020160070160009054906101000a900460ff168015610afc575060058181548110610adb57610ada611d74565b5b906000526020600020906008020160070160019054906101000a900460ff16155b15610b0b576001915050610b2a565b6000915050610b2a565b8080610b20906119a9565b9150506109d7565b505b919050565b60606005805480602002602001604051908101604052809291908181526020016000905b82821015610d22578382906000526020600020906008020160405180610140016040529081600082015481526020016001820160009054906101000a900460ff16151515158152602001600282015481526020016003820160009054906101000a900473ffffffffffffffffffffffffffffffffffffffff1673ffffffffffffffffffffffffffffffffffffffff1673ffffffffffffffffffffffffffffffffffffffff1681526020016003820160149054906101000a900460ff166001811115610c2157610c206114e1565b5b6001811115610c3357610c326114e1565b5b8152602001600482018054610c4790611a20565b80601f0160208091040260200160405190810160405280929190818152602001828054610c7390611a20565b8015610cc05780601f10610c9557610100808354040283529160200191610cc0565b820191906000526020600020905b815481529060010190602001808311610ca357829003601f168201915b5050505050815260200160058201548152602001600682015481526020016007820160009054906101000a900460ff161515151581526020016007820160019054906101000a900460ff16151515158152505081526020019060010190610b53565b50505050905090565b60015481565b60005b6005805490508110156110ac578160058281548110610d5657610d55611d74565b5b9060005260206000209060080201600001540361109957600160058281548110610d8357610d82611d74565b5b906000526020600020906008020160030160146101000a81548160ff02191690836001811115610db657610db56114e1565b5b02179055504260058281548110610dd057610dcf611d74565b5b906000526020600020906008020160060181905550600660058281548110610dfb57610dfa611d74565b5b90600052602060002090600802019080600181540180825580915050600190039060005260206000209060080201600090919091909150600082015481600001556001820160009054906101000a900460ff168160010160006101000a81548160ff021916908315150217905550600282015481600201556003820160009054906101000a900473ffffffffffffffffffffffffffffffffffffffff168160030160006101000a81548173ffffffffffffffffffffffffffffffffffffffff021916908373ffffffffffffffffffffffffffffffffffffffff1602179055506003820160149054906101000a900460ff168160030160146101000a81548160ff02191690836001811115610f1257610f116114e1565b5b021790555060048201816004019081610f2b9190611db9565b5060058201548160050155600682015481600601556007820160009054906101000a900460ff168160070160006101000a81548160ff0219169083151502179055506007820160019054906101000a900460ff168160070160016101000a81548160ff021916908315150217905550505060058181548110610fb057610faf611d74565b5b90600052602060002090600802016000808201600090556001820160006101000a81549060ff021916905560028201600090556003820160006101000a81549073ffffffffffffffffffffffffffffffffffffffff02191690556003820160146101000a81549060ff021916905560048201600061102e9190611131565b600582016000905560068201600090556007820160006101000a81549060ff02191690556007820160016101000a81549060ff021916905550506001600081548092919061107b90611ea1565b919050555060026000815480929190611093906119a9565b91905055505b80806110a4906119a9565b915050610d34565b5050565b6040518061014001604052806000815260200160001515815260200160008152602001600073ffffffffffffffffffffffffffffffffffffffff16815260200160006001811115611104576111036114e1565b5b81526020016060815260200160008152602001600081526020016000151581526020016000151581525090565b50805461113d90611a20565b6000825580601f1061114f575061116e565b601f01602090049060005260206000209081019061116d9190611171565b5b50565b5b8082111561118a576000816000905550600101611172565b5090565b6000819050919050565b6111a18161118e565b82525050565b60006020820190506111bc6000830184611198565b92915050565b6000604051905090565b600080fd5b600080fd5b6111df8161118e565b81146111ea57600080fd5b50565b6000813590506111fc816111d6565b92915050565b600060208284031215611218576112176111cc565b5b6000611226848285016111ed565b91505092915050565b600073ffffffffffffffffffffffffffffffffffffffff82169050919050565b600061125a8261122f565b9050919050565b61126a8161124f565b82525050565b60006020820190506112856000830184611261565b92915050565b60008115159050919050565b6112a08161128b565b81146112ab57600080fd5b50565b6000813590506112bd81611297565b92915050565b600080fd5b600080fd5b6000601f19601f8301169050919050565b7f4e487b7100000000000000000000000000000000000000000000000000000000600052604160045260246000fd5b611316826112cd565b810181811067ffffffffffffffff82111715611335576113346112de565b5b80604052505050565b60006113486111c2565b9050611354828261130d565b919050565b600067ffffffffffffffff821115611374576113736112de565b5b61137d826112cd565b9050602081019050919050565b82818337600083830152505050565b60006113ac6113a784611359565b61133e565b9050828152602081018484840111156113c8576113c76112c8565b5b6113d384828561138a565b509392505050565b600082601f8301126113f0576113ef6112c3565b5b8135611400848260208601611399565b91505092915050565b600080600060608486031215611422576114216111cc565b5b6000611430868287016112ae565b935050602084013567ffffffffffffffff811115611451576114506111d1565b5b61145d868287016113db565b925050604061146e868287016111ed565b9150509250925092565b6114818161128b565b82525050565b600060208201905061149c6000830184611478565b92915050565b6114ab8161118e565b82525050565b6114ba8161128b565b82525050565b60006114cb8261122f565b9050919050565b6114db816114c0565b82525050565b7f4e487b7100000000000000000000000000000000000000000000000000000000600052602160045260246000fd5b60028110611521576115206114e1565b5b50565b600081905061153282611510565b919050565b600061154282611524565b9050919050565b61155281611537565b82525050565b600081519050919050565b600082825260208201905092915050565b60005b83811015611592578082015181840152602081019050611577565b60008484015250505050565b60006115a982611558565b6115b38185611563565b93506115c3818560208601611574565b6115cc816112cd565b840191505092915050565b6000610140830160008301516115f060008601826114a2565b50602083015161160360208601826114b1565b50604083015161161660408601826114a2565b50606083015161162960608601826114d2565b50608083015161163c6080860182611549565b5060a083015184820360a0860152611654828261159e565b91505060c083015161166960c08601826114a2565b5060e083015161167c60e08601826114a2565b506101008301516116916101008601826114b1565b506101208301516116a66101208601826114b1565b508091505092915050565b600060208201905081810360008301526116cb81846115d7565b905092915050565b600081519050919050565b600082825260208201905092915050565b6000819050602082019050919050565b60006101408301600083015161171860008601826114a2565b50602083015161172b60208601826114b1565b50604083015161173e60408601826114a2565b50606083015161175160608601826114d2565b5060808301516117646080860182611549565b5060a083015184820360a086015261177c828261159e565b91505060c083015161179160c08601826114a2565b5060e08301516117a460e08601826114a2565b506101008301516117b96101008601826114b1565b506101208301516117ce6101208601826114b1565b508091505092915050565b60006117e583836116ff565b905092915050565b6000602082019050919050565b6000611805826116d3565b61180f81856116de565b935083602082028501611821856116ef565b8060005b8581101561185d578484038952815161183e85826117d9565b9450611849836117ed565b925060208a01995050600181019050611825565b50829750879550505050505092915050565b6000602082019050818103600083015261188981846117fa565b905092915050565b600082825260208201905092915050565b7f63757272656e6379206973206e65656465640000000000000000000000000000600082015250565b60006118d8601283611891565b91506118e3826118a2565b602082019050919050565b60006020820190508181036000830152611907816118cb565b9050919050565b7f456e747279206665652063616e206e6f74206265206c657373207468616e2030600082015250565b6000611944602083611891565b915061194f8261190e565b602082019050919050565b6000602082019050818103600083015261197381611937565b9050919050565b7f4e487b7100000000000000000000000000000000000000000000000000000000600052601160045260246000fd5b60006119b48261118e565b91507fffffffffffffffffffffffffffffffffffffffffffffffffffffffffffffffff82036119e6576119e561197a565b5b600182019050919050565b7f4e487b7100000000000000000000000000000000000000000000000000000000600052602260045260246000fd5b60006002820490506001821680611a3857607f821691505b602082108103611a4b57611a4a6119f1565b5b50919050565b60008190508160005260206000209050919050565b60006020601f8301049050919050565b600082821b905092915050565b600060088302611ab37fffffffffffffffffffffffffffffffffffffffffffffffffffffffffffffffff82611a76565b611abd8683611a76565b95508019841693508086168417925050509392505050565b6000819050919050565b6000611afa611af5611af08461118e565b611ad5565b61118e565b9050919050565b6000819050919050565b611b1483611adf565b611b28611b2082611b01565b848454611a83565b825550505050565b600090565b611b3d611b30565b611b48818484611b0b565b505050565b5b81811015611b6c57611b61600082611b35565b600181019050611b4e565b5050565b601f821115611bb157611b8281611a51565b611b8b84611a66565b81016020851015611b9a578190505b611bae611ba685611a66565b830182611b4d565b50505b505050565b600082821c905092915050565b6000611bd460001984600802611bb6565b1980831691505092915050565b6000611bed8383611bc3565b9150826002028217905092915050565b611c0682611558565b67ffffffffffffffff811115611c1f57611c1e6112de565b5b611c298254611a20565b611c34828285611b70565b600060209050601f831160018114611c675760008415611c55578287015190505b611c5f8582611be1565b865550611cc7565b601f198416611c7586611a51565b60005b82811015611c9d57848901518255600182019150602085019450602081019050611c78565b86831015611cba5784890151611cb6601f891682611bc3565b8355505b6001600288020188555050505b505050505050565b7f47414d4520435245415445440000000000000000000000000000000000000000600082015250565b6000611d05600c83611891565b9150611d1082611ccf565b602082019050919050565b611d2481611537565b82525050565b6000608082019050611d3f6000830186611198565b8181036020830152611d5081611cf8565b9050611d5f6040830185611d1b565b611d6c6060830184611198565b949350505050565b7f4e487b7100000000000000000000000000000000000000000000000000000000600052603260045260246000fd5b600081549050611db281611a20565b9050919050565b818103611dc7575050611e9f565b611dd082611da3565b67ffffffffffffffff811115611de957611de86112de565b5b611df38254611a20565b611dfe828285611b70565b6000601f831160018114611e2d5760008415611e1b578287015490505b611e258582611be1565b865550611e98565b601f198416611e3b87611a51565b9650611e4686611a51565b60005b82811015611e6e57848901548255600182019150600185019450602081019050611e49565b86831015611e8b5784890154611e87601f891682611bc3565b8355505b6001600288020188555050505b5050505050505b565b6000611eac8261118e565b915060008203611ebf57611ebe61197a565b5b60018203905091905056fea26469706673582212203ac8da7eb4346c6267d21e9926882536b38cfc22454da06d167cd58bb9aa023864736f6c63430008110033",
  "linkReferences": {},
  "deployedLinkReferences": {}
}