{
  "_format": "hh-sol-artifact-1",
  "contractName": "ChessPlayers",
  "sourceName": "contracts/ChessPlayers.sol",
  "abi": [
    {
      "inputs": [
        {
          "internalType": "uint8",
          "name": "_maxNumberOfPlayers",
          "type": "uint8"
        }
      ],
      "stateMutability": "nonpayable",
      "type": "constructor"
    },
    {
      "anonymous": false,
      "inputs": [
        {
          "indexed": false,
          "internalType": "uint256",
          "name": "id",
          "type": "uint256"
        },
        {
          "indexed": false,
          "internalType": "bool",
          "name": "privacy",
          "type": "bool"
        },
        {
          "indexed": false,
          "internalType": "uint256",
          "name": "entryFee",
          "type": "uint256"
        },
        {
          "indexed": false,
          "internalType": "address payable",
          "name": "owner",
          "type": "address"
        },
        {
          "indexed": false,
          "internalType": "bool",
          "name": "hasEnded",
          "type": "bool"
        },
        {
          "indexed": false,
          "internalType": "string",
          "name": "currency",
          "type": "string"
        },
        {
          "indexed": false,
          "internalType": "string",
          "name": "created_on",
          "type": "string"
        },
        {
          "indexed": false,
          "internalType": "bool",
          "name": "player1",
          "type": "bool"
        },
        {
          "indexed": false,
          "internalType": "bool",
          "name": "player2",
          "type": "bool"
        }
      ],
      "name": "GameCreated",
      "type": "event"
    },
    {
      "anonymous": false,
      "inputs": [
        {
          "indexed": false,
          "internalType": "uint256",
          "name": "id",
          "type": "uint256"
        },
        {
          "indexed": false,
          "internalType": "bool",
          "name": "privacy",
          "type": "bool"
        },
        {
          "indexed": false,
          "internalType": "uint256",
          "name": "entryFee",
          "type": "uint256"
        },
        {
          "indexed": false,
          "internalType": "address payable",
          "name": "owner",
          "type": "address"
        },
        {
          "indexed": false,
          "internalType": "bool",
          "name": "hasEnded",
          "type": "bool"
        },
        {
          "indexed": false,
          "internalType": "string",
          "name": "currency",
          "type": "string"
        },
        {
          "indexed": false,
          "internalType": "string",
          "name": "created_on",
          "type": "string"
        },
        {
          "indexed": false,
          "internalType": "bool",
          "name": "player1",
          "type": "bool"
        },
        {
          "indexed": false,
          "internalType": "bool",
          "name": "player2",
          "type": "bool"
        }
      ],
      "name": "GameDetails",
      "type": "event"
    },
    {
      "inputs": [
        {
          "internalType": "uint256",
          "name": "",
          "type": "uint256"
        }
      ],
      "name": "Games",
      "outputs": [
        {
          "internalType": "uint256",
          "name": "id",
          "type": "uint256"
        },
        {
          "internalType": "bool",
          "name": "privacy",
          "type": "bool"
        },
        {
          "internalType": "uint256",
          "name": "entryFee",
          "type": "uint256"
        },
        {
          "internalType": "address payable",
          "name": "owner",
          "type": "address"
        },
        {
          "internalType": "bool",
          "name": "hasEnded",
          "type": "bool"
        },
        {
          "internalType": "string",
          "name": "currency",
          "type": "string"
        },
        {
          "internalType": "string",
          "name": "created_on",
          "type": "string"
        },
        {
          "internalType": "bool",
          "name": "player1",
          "type": "bool"
        },
        {
          "internalType": "bool",
          "name": "player2",
          "type": "bool"
        }
      ],
      "stateMutability": "view",
      "type": "function"
    },
    {
      "inputs": [
        {
          "internalType": "uint256",
          "name": "_id",
          "type": "uint256"
        }
      ],
      "name": "JoinGame",
      "outputs": [],
      "stateMutability": "payable",
      "type": "function"
    },
    {
      "inputs": [
        {
          "internalType": "bool",
          "name": "_privacy",
          "type": "bool"
        },
        {
          "internalType": "string",
          "name": "_currency",
          "type": "string"
        },
        {
          "internalType": "uint256",
          "name": "_entryFee",
          "type": "uint256"
        },
        {
          "internalType": "string",
          "name": "_createdOn",
          "type": "string"
        }
      ],
      "name": "createGame",
      "outputs": [],
      "stateMutability": "nonpayable",
      "type": "function"
    },
    {
      "inputs": [],
      "name": "gameCount",
      "outputs": [
        {
          "internalType": "uint256",
          "name": "",
          "type": "uint256"
        }
      ],
      "stateMutability": "view",
      "type": "function"
    },
    {
      "inputs": [
        {
          "internalType": "uint256",
          "name": "_id",
          "type": "uint256"
        }
      ],
      "name": "getGameDetails",
      "outputs": [],
      "stateMutability": "payable",
      "type": "function"
    },
    {
      "inputs": [],
      "name": "maxNumberOfPlayers",
      "outputs": [
        {
          "internalType": "uint8",
          "name": "",
          "type": "uint8"
        }
      ],
      "stateMutability": "view",
      "type": "function"
    },
    {
      "inputs": [],
      "name": "name",
      "outputs": [
        {
          "internalType": "string",
          "name": "",
          "type": "string"
        }
      ],
      "stateMutability": "view",
      "type": "function"
    },
    {
      "inputs": [],
      "name": "numOfPlayerAdded",
      "outputs": [
        {
          "internalType": "uint8",
          "name": "",
          "type": "uint8"
        }
      ],
      "stateMutability": "view",
      "type": "function"
    }
  ],
  "bytecode": "0x608060405260006003553480156200001657600080fd5b50604051620019a3380380620019a383398181016040528101906200003c9190620000e7565b806000806101000a81548160ff021916908360ff1602179055506040518060400160405280600581526020017f6368657373000000000000000000000000000000000000000000000000000000815250600190816200009c919062000393565b50506200047a565b600080fd5b600060ff82169050919050565b620000c181620000a9565b8114620000cd57600080fd5b50565b600081519050620000e181620000b6565b92915050565b6000602082840312156200010057620000ff620000a4565b5b60006200011084828501620000d0565b91505092915050565b600081519050919050565b7f4e487b7100000000000000000000000000000000000000000000000000000000600052604160045260246000fd5b7f4e487b7100000000000000000000000000000000000000000000000000000000600052602260045260246000fd5b600060028204905060018216806200019b57607f821691505b602082108103620001b157620001b062000153565b5b50919050565b60008190508160005260206000209050919050565b60006020601f8301049050919050565b600082821b905092915050565b6000600883026200021b7fffffffffffffffffffffffffffffffffffffffffffffffffffffffffffffffff82620001dc565b620002278683620001dc565b95508019841693508086168417925050509392505050565b6000819050919050565b6000819050919050565b6000620002746200026e62000268846200023f565b62000249565b6200023f565b9050919050565b6000819050919050565b620002908362000253565b620002a86200029f826200027b565b848454620001e9565b825550505050565b600090565b620002bf620002b0565b620002cc81848462000285565b505050565b5b81811015620002f457620002e8600082620002b5565b600181019050620002d2565b5050565b601f82111562000343576200030d81620001b7565b6200031884620001cc565b8101602085101562000328578190505b620003406200033785620001cc565b830182620002d1565b50505b505050565b600082821c905092915050565b6000620003686000198460080262000348565b1980831691505092915050565b600062000383838362000355565b9150826002028217905092915050565b6200039e8262000119565b67ffffffffffffffff811115620003ba57620003b962000124565b5b620003c6825462000182565b620003d3828285620002f8565b600060209050601f8311600181146200040b5760008415620003f6578287015190505b62000402858262000375565b86555062000472565b601f1984166200041b86620001b7565b60005b8281101562000445578489015182556001820191506020850194506020810190506200041e565b8683101562000465578489015162000461601f89168262000355565b8355505b6001600288020188555050505b505050505050565b611519806200048a6000396000f3fe60806040526004361061007b5760003560e01c8063728fdffa1161004e578063728fdffa146101375780637d43e62b14610162578063b61001871461018d578063b913ac80146101a95761007b565b806306fdde03146100805780631b31abda146100ab57806329d4f4c3146100c75780634d1975b41461010c575b600080fd5b34801561008c57600080fd5b506100956101d2565b6040516100a29190610d9d565b60405180910390f35b6100c560048036038101906100c09190610e09565b610260565b005b3480156100d357600080fd5b506100ee60048036038101906100e99190610e09565b6104ed565b60405161010399989796959493929190610ea1565b60405180910390f35b34801561011857600080fd5b5061012161069f565b60405161012e9190610f3c565b60405180910390f35b34801561014357600080fd5b5061014c6106a5565b6040516101599190610f73565b60405180910390f35b34801561016e57600080fd5b506101776106b6565b6040516101849190610f73565b60405180910390f35b6101a760048036038101906101a29190610e09565b6106c9565b005b3480156101b557600080fd5b506101d060048036038101906101cb91906110ef565b610af2565b005b600180546101df906111bd565b80601f016020809104026020016040519081016040528092919081815260200182805461020b906111bd565b80156102585780601f1061022d57610100808354040283529160200191610258565b820191906000526020600020905b81548152906001019060200180831161023b57829003601f168201915b505050505081565b60006004600083815260200190815260200160002060405180610120016040529081600082015481526020016001820160009054906101000a900460ff16151515158152602001600282015481526020016003820160009054906101000a900473ffffffffffffffffffffffffffffffffffffffff1673ffffffffffffffffffffffffffffffffffffffff1673ffffffffffffffffffffffffffffffffffffffff1681526020016003820160149054906101000a900460ff16151515158152602001600482018054610331906111bd565b80601f016020809104026020016040519081016040528092919081815260200182805461035d906111bd565b80156103aa5780601f1061037f576101008083540402835291602001916103aa565b820191906000526020600020905b81548152906001019060200180831161038d57829003601f168201915b505050505081526020016005820180546103c3906111bd565b80601f01602080910402602001604051908101604052809291908181526020018280546103ef906111bd565b801561043c5780601f106104115761010080835404028352916020019161043c565b820191906000526020600020905b81548152906001019060200180831161041f57829003601f168201915b505050505081526020016006820160009054906101000a900460ff161515151581526020016006820160019054906101000a900460ff16151515158152505090507f7166e5209cece7d1af6811aae8555c2ee078af84bb13b7e301d10efac66c6321816000015182602001518360400151846060015185608001518660a001518760c001518860e001518961010001516040516104e199989796959493929190610ea1565b60405180910390a15050565b60046020528060005260406000206000915090508060000154908060010160009054906101000a900460ff16908060020154908060030160009054906101000a900473ffffffffffffffffffffffffffffffffffffffff16908060030160149054906101000a900460ff1690806004018054610568906111bd565b80601f0160208091040260200160405190810160405280929190818152602001828054610594906111bd565b80156105e15780601f106105b6576101008083540402835291602001916105e1565b820191906000526020600020905b8154815290600101906020018083116105c457829003601f168201915b5050505050908060050180546105f6906111bd565b80601f0160208091040260200160405190810160405280929190818152602001828054610622906111bd565b801561066f5780601f106106445761010080835404028352916020019161066f565b820191906000526020600020905b81548152906001019060200180831161065257829003601f168201915b5050505050908060060160009054906101000a900460ff16908060060160019054906101000a900460ff16905089565b60035481565b60008054906101000a900460ff1681565b600260009054906101000a900460ff1681565b60006004600083815260200190815260200160002060405180610120016040529081600082015481526020016001820160009054906101000a900460ff16151515158152602001600282015481526020016003820160009054906101000a900473ffffffffffffffffffffffffffffffffffffffff1673ffffffffffffffffffffffffffffffffffffffff1673ffffffffffffffffffffffffffffffffffffffff1681526020016003820160149054906101000a900460ff1615151515815260200160048201805461079a906111bd565b80601f01602080910402602001604051908101604052809291908181526020018280546107c6906111bd565b80156108135780601f106107e857610100808354040283529160200191610813565b820191906000526020600020905b8154815290600101906020018083116107f657829003601f168201915b5050505050815260200160058201805461082c906111bd565b80601f0160208091040260200160405190810160405280929190818152602001828054610858906111bd565b80156108a55780601f1061087a576101008083540402835291602001916108a5565b820191906000526020600020905b81548152906001019060200180831161088857829003601f168201915b505050505081526020016006820160009054906101000a900460ff161515151581526020016006820160019054906101000a900460ff16151515158152505090506000816060015190506000826000015111801561090857506003548260000151105b61091157600080fd5b816040015134101561092257600080fd5b8160e001511580156109375750816101000151155b61094057600080fd5b8160e0015180156109545750816101000151155b1561096c576001826101000190151590811515815250505b8160e001516109875760018260e00190151590811515815250505b81600460008581526020019081526020016000206000820151816000015560208201518160010160006101000a81548160ff0219169083151502179055506040820151816002015560608201518160030160006101000a81548173ffffffffffffffffffffffffffffffffffffffff021916908373ffffffffffffffffffffffffffffffffffffffff16021790555060808201518160030160146101000a81548160ff02191690831515021790555060a0820151816004019081610a4b919061139a565b5060c0820151816005019081610a61919061139a565b5060e08201518160060160006101000a81548160ff0219169083151502179055506101008201518160060160016101000a81548160ff0219169083151502179055509050508073ffffffffffffffffffffffffffffffffffffffff166108fc349081150290604051600060405180830381858888f19350505050158015610aec573d6000803e3d6000fd5b50505050565b6000835111610b0057600080fd5b60008211610b0d57600080fd5b6000815111610b1b57600080fd5b60036000815480929190610b2e9061149b565b91905055506000339050604051806101200160405280600354815260200186151581526020018481526020018273ffffffffffffffffffffffffffffffffffffffff168152602001600015158152602001858152602001838152602001600015158152602001600015158152506004600060035481526020019081526020016000206000820151816000015560208201518160010160006101000a81548160ff0219169083151502179055506040820151816002015560608201518160030160006101000a81548173ffffffffffffffffffffffffffffffffffffffff021916908373ffffffffffffffffffffffffffffffffffffffff16021790555060808201518160030160146101000a81548160ff02191690831515021790555060a0820151816004019081610c60919061139a565b5060c0820151816005019081610c76919061139a565b5060e08201518160060160006101000a81548160ff0219169083151502179055506101008201518160060160016101000a81548160ff0219169083151502179055509050507f96b27383f93c219895f3f6487e51025f1213b4c2ebbc1305a181018820303a3c60035486858460008988600080604051610cfe99989796959493929190610ea1565b60405180910390a15050505050565b600081519050919050565b600082825260208201905092915050565b60005b83811015610d47578082015181840152602081019050610d2c565b60008484015250505050565b6000601f19601f8301169050919050565b6000610d6f82610d0d565b610d798185610d18565b9350610d89818560208601610d29565b610d9281610d53565b840191505092915050565b60006020820190508181036000830152610db78184610d64565b905092915050565b6000604051905090565b600080fd5b600080fd5b6000819050919050565b610de681610dd3565b8114610df157600080fd5b50565b600081359050610e0381610ddd565b92915050565b600060208284031215610e1f57610e1e610dc9565b5b6000610e2d84828501610df4565b91505092915050565b610e3f81610dd3565b82525050565b60008115159050919050565b610e5a81610e45565b82525050565b600073ffffffffffffffffffffffffffffffffffffffff82169050919050565b6000610e8b82610e60565b9050919050565b610e9b81610e80565b82525050565b600061012082019050610eb7600083018c610e36565b610ec4602083018b610e51565b610ed1604083018a610e36565b610ede6060830189610e92565b610eeb6080830188610e51565b81810360a0830152610efd8187610d64565b905081810360c0830152610f118186610d64565b9050610f2060e0830185610e51565b610f2e610100830184610e51565b9a9950505050505050505050565b6000602082019050610f516000830184610e36565b92915050565b600060ff82169050919050565b610f6d81610f57565b82525050565b6000602082019050610f886000830184610f64565b92915050565b610f9781610e45565b8114610fa257600080fd5b50565b600081359050610fb481610f8e565b92915050565b600080fd5b600080fd5b7f4e487b7100000000000000000000000000000000000000000000000000000000600052604160045260246000fd5b610ffc82610d53565b810181811067ffffffffffffffff8211171561101b5761101a610fc4565b5b80604052505050565b600061102e610dbf565b905061103a8282610ff3565b919050565b600067ffffffffffffffff82111561105a57611059610fc4565b5b61106382610d53565b9050602081019050919050565b82818337600083830152505050565b600061109261108d8461103f565b611024565b9050828152602081018484840111156110ae576110ad610fbf565b5b6110b9848285611070565b509392505050565b600082601f8301126110d6576110d5610fba565b5b81356110e684826020860161107f565b91505092915050565b6000806000806080858703121561110957611108610dc9565b5b600061111787828801610fa5565b945050602085013567ffffffffffffffff81111561113857611137610dce565b5b611144878288016110c1565b935050604061115587828801610df4565b925050606085013567ffffffffffffffff81111561117657611175610dce565b5b611182878288016110c1565b91505092959194509250565b7f4e487b7100000000000000000000000000000000000000000000000000000000600052602260045260246000fd5b600060028204905060018216806111d557607f821691505b6020821081036111e8576111e761118e565b5b50919050565b60008190508160005260206000209050919050565b60006020601f8301049050919050565b600082821b905092915050565b6000600883026112507fffffffffffffffffffffffffffffffffffffffffffffffffffffffffffffffff82611213565b61125a8683611213565b95508019841693508086168417925050509392505050565b6000819050919050565b600061129761129261128d84610dd3565b611272565b610dd3565b9050919050565b6000819050919050565b6112b18361127c565b6112c56112bd8261129e565b848454611220565b825550505050565b600090565b6112da6112cd565b6112e58184846112a8565b505050565b5b81811015611309576112fe6000826112d2565b6001810190506112eb565b5050565b601f82111561134e5761131f816111ee565b61132884611203565b81016020851015611337578190505b61134b61134385611203565b8301826112ea565b50505b505050565b600082821c905092915050565b600061137160001984600802611353565b1980831691505092915050565b600061138a8383611360565b9150826002028217905092915050565b6113a382610d0d565b67ffffffffffffffff8111156113bc576113bb610fc4565b5b6113c682546111bd565b6113d182828561130d565b600060209050601f83116001811461140457600084156113f2578287015190505b6113fc858261137e565b865550611464565b601f198416611412866111ee565b60005b8281101561143a57848901518255600182019150602085019450602081019050611415565b868310156114575784890151611453601f891682611360565b8355505b6001600288020188555050505b505050505050565b7f4e487b7100000000000000000000000000000000000000000000000000000000600052601160045260246000fd5b60006114a682610dd3565b91507fffffffffffffffffffffffffffffffffffffffffffffffffffffffffffffffff82036114d8576114d761146c565b5b60018201905091905056fea2646970667358221220d891d10c354a658a00d1cb85fafb011dc43f2c76b208c450e79bfe6ff1e3bce364736f6c63430008110033",
  "linkReferences": {},
  "deployedLinkReferences": {}
}